:020000040000FA
:0400000080EF00F09D
:020004000000FA
:080008009EAC10008DEF00F02A
:100100009280810EC26ECE0EC16EC36AC46A9E9C7E
:0A0110009D8CF28CF28EC284FED7A3
:10020000C3CF51F0C4CF50F090EC01F0536A000E10
:10021000506201D009D0532A180E526E515E000E62
:10022000505A000E5062F7D7532A180E515EFCE266
:100230005306546A556A53C055F00A0E542A555E47
:10024000FDE254065526936A946A816A826A000E1A
:10025000566E010E576E020E586E030E596E040E46
:10026000616F050E626F060E636F070E646F080EF6
:10027000656F090E666F5450566202D0400E816E53
:10028000576202D0F90E816E586202D0A40E816EC0
:10029000596202D0B00E816E616302D0990E816EF8
:1002A000626302D0920E816E636302D0820E816E11
:1002B000646302D0F80E816E656302D0800E816E99
:1002C000666302D0900E816E5550566202D0400E89
:1002D000826E576202D0F90E826E586202D0A40E6E
:1002E000826E596202D0B00E826E616302D0990EA6
:1002F000826E626302D0920E826E636302D0820EBF
:10030000826E646302D0F80E826E656302D0800E46
:10031000826E666302D0900E826E819E9E9C10005B
:10032000020E676FFA0E686FFA0E696F0000000028
:0E0330006907FCE16807F8E16707F4E11200D5
:020000040030CA
:0100010022DC
:010003000EEE
:00000001FF
